:020000040000FA
:100000000C945D000C9485000C9485000C94850084
:100010000C9485000C9485000C9485000C9485004C
:100020000C9485000C9485000C9485000C94450478
:100030000C9485000C9485000C9485000C9485002C
:100040000C94A3030C9485000C9413040C94ED03FE
:100050000C9485000C9485000C9485000C9485000C
:100060000C9485000C94850000000008000201003B
:100070000003040700000000000000000000000072
:10008000250028002B0000000000240027002A0083
:10009000040404040404040402020202020203032E
:1000A0000303030301020408102040800102040836
:1000B0001020010204081020010511241FBECFEFFB
:1000C000D8E0DEBFCDBF11E0A0E0B1E0EAE6F7E1A5
:1000D00002C005900D92AC32B107D9F722E0ACE234
:1000E000B1E001C01D92AA35B207E1F710E0CDE5FD
:1000F000D0E004C02197FE010E94AD0BCC35D107A2
:10010000C9F70E9422060C94B30B0C94000090E0F7
:10011000FC01EC55FF4F249180579F4FFC018491C7
:10012000882399F090E0880F991FFC01EA57FF4F50
:10013000A591B491FC01E458FF4F859194918FB73C
:10014000F894EC91E22BEC938FBF089590E0FC01C2
:10015000E859FF4F2491FC01EC55FF4F3491FC010D
:10016000E057FF4FE491EE23C9F0222339F023300A
:1001700001F1A8F4213019F1223029F1F0E0EE0F5D
:10018000FF1FE458FF4FA591B4918FB7F894EC91FD
:10019000611126C030953E233C938FBF08952730D0
:1001A000A9F02830C9F0243049F7809180008F7D74
:1001B00003C0809180008F7780938000DFCF84B56B
:1001C0008F7784BDDBCF84B58F7DFBCF8091B0006E
:1001D0008F778093B000D2CF8091B0008F7DF9CF20
:1001E0003E2BDACF8E50806480937C0080917A0021
:1001F000806480937A0080917A0086FDFCCF8091A4
:1002000078009091790008953FB7F8948091460165
:1002100090914701A0914801B091490126B5A89B52
:1002200005C02F3F19F00196A11DB11D3FBFBA2F88
:10023000A92F982F8827BC01CD01620F711D811D48
:10024000911D42E0660F771F881F991F4A95D1F7CD
:100250000895AF92BF92CF92DF92EF92FF920F93E9
:100260001F93CF93DF936C017B018B01040F151F4C
:10027000EB015E01AE18BF08C017D10759F06991B4
:10028000D601ED91FC910190F081E02DC601099518
:10029000892B79F7C501DF91CF911F910F91FF90C5
:1002A000EF90DF90CF90BF90AF900895FC01538DF9
:1002B000448D252F30E0842F90E0821B930B541740
:1002C00010F0CF96089501970895FC01918D828DCD
:1002D000981761F0A28DAE0FBF2FB11D5D968C9166
:1002E000928D9F5F9F73928F90E008958FEF9FEFA5
:1002F0000895FC01918D828D981731F0828DE80F61
:10030000F11D858D90E008958FEF9FEF0895FC011A
:10031000918D228D892F90E0805C9F4F821B9109E7
:100320008F73992708958AE491E00E94870121E064
:10033000892B09F420E0822F089580E090E0892B3A
:1003400029F00E94930181110C9400000895FC0192
:10035000A48DA80FB92FB11DA35ABF4F2C91848D26
:1003600090E001968F739927848FA689B7892C9383
:10037000A089B1898C91837080648C93938D848DD6
:10038000981306C00288F389E02D80818F7D8083D9
:100390000895EF92FF920F931F93CF93DF93EC0199
:1003A00081E0888F9B8D8C8D98131AC0E889F9891C
:1003B000808185FF15C09FB7F894EE89FF8960831F
:1003C000E889F98980818370806480839FBF81E0A0
:1003D00090E0DF91CF911F910F91FF90EF900895E2
:1003E000F62E0B8D10E00F5F1F4F0F731127E02EBD
:1003F0008C8D8E110CC00FB607FCFACFE889F989F5
:10040000808185FFF5CFCE010E94A701F1CFEB8D52
:10041000EC0FFD2FF11DE35AFF4FF0829FB7F894C8
:100420000B8FEA89FB8980818062CFCFCF93DF93E6
:10043000EC01888D8823B9F0AA89BB89E889F989FC
:100440008C9185FD03C0808186FD0DC00FB607FC31
:10045000F7CF8C9185FFF2CF808185FFEDCFCE0164
:100460000E94A701E9CFDF91CF910895CF92DF924B
:10047000EF92FF92CF93DF93EC01603282E0780736
:10048000CCF5653B710514F064EB70E0898128E8D8
:1004900030E0281B310987FD3395220F331F220FCF
:1004A000331F6901330FEE08FF088A8128E532E027
:1004B000281B310987FD3395220F331F220F331F6D
:1004C000032E000C440B550B2C193D094E095F09F6
:1004D000DB0177FF02C0B0E0A0E00E94970924EBA7
:1004E00030E040E050E00E946D09C20ED31EE41ED1
:1004F000F51EB601E881EC3070F5298188E890E0BE
:10050000821B910927FD9395880F991F880F991FCA
:10051000681779077CF02A8188E592E0821B9109AF
:1005200027FD9395880F991F880F991F68177907E2
:100530000CF4CB010297880F991F4FB7F8942E2F18
:1005400030E0F901EE0FFF1FE20FF31FE951FE4FFC
:10055000928381834FBFDF91CF91FF90EF90DF9027
:10056000CF9008951F93CF93DF93EC01162F8881CE
:100570008C3008F04DC0862F0E9487008881282F7C
:1005800030E0F901EE0FFF1FE20FF31FE951FE4FBC
:100590001F736081607C612B608319821A822CE05A
:1005A000622F0E94A10B829FB001112430E020E055
:1005B000AB01420F531FFA01EE0FFF1FE40FF51FAF
:1005C000E951FE4F908196FD16C02F5F3F4F2C30B2
:1005D000310571F781110FC01092800082E0809385
:1005E00081001092850010928400B19A80916F0072
:1005F000826080936F00E8818E2F90E0FC01EE0F07
:10060000FF1FE80FF91FE951FE4F8081806480834E
:100610008881DF91CF911F9108958EE00E94F200B2
:10062000BC01990F880B990B0E947A0A60933D01D7
:1006300070933E0180933F01909340018FE00E94B0
:10064000F200BC01990F880B990B0E947A0A609303
:10065000350170933601809337019093380180E122
:100660000E94F200BC01990F880B990B0E947A0A34
:100670006093390170933A0180933B0190933C0160
:1006800081E10E94F200BC01990F880B990B0E9436
:100690007A0A609331017093320180933301909311
:1006A00034010895FC0101900020E9F73197AF0172
:1006B000481B590BBC018AE491E00C9429018F92EC
:1006C0009F92AF92BF920F931F93CF93DF93CDB7BB
:1006D000DEB7A1970FB6F894DEBF0FBECDBF19A24B
:1006E000423008F44AE08E010F5D1F4F842E912C9A
:1006F000B12CA12CA50194010E949F09E62FB901FC
:10070000CA01EA30F4F4E05DD801EE938D01232BA9
:10071000242B252B79F790E080E0109719F0CD017C
:100720000E945203A1960FB6F894DEBF0FBECDBF54
:10073000DF91CF911F910F91BF90AF909F908F90BD
:100740000895E95CE1CF1F920F920FB60F9211242A
:100750002F933F938F939F93AF93BF9380914201C9
:1007600090914301A0914401B09145013091410124
:1007700023E0230F2D3758F50196A11DB11D2093BD
:1007800041018093420190934301A0934401B093AF
:1007900045018091460190914701A0914801B09197
:1007A00049010196A11DB11D809346019093470117
:1007B000A0934801B0934901BF91AF919F918F9150
:1007C0003F912F910F900FBE0F901F90189526E824
:1007D000230F0296A11DB11DD2CF1F920F920FB60B
:1007E0000F9211242F933F934F935F936F937F93B7
:1007F0008F939F93AF93BF93EF93FF938AE491E01E
:100800000E94A701FF91EF91BF91AF919F918F91AE
:100810007F916F915F914F913F912F910F900FBEFC
:100820000F901F9018951F920F920FB60F921124E0
:100830002F938F939F93EF93FF93E0915A01F09141
:100840005B018081E0916001F091610182FD1BC03C
:100850009081809163018F5F8F7320916401821773
:1008600041F0E0916301F0E0E65BFE4F958F8093ED
:100870006301FF91EF919F918F912F910F900FBE88
:100880000F901F9018958081F4CF1F920F920FB692
:100890000F9211242F933F934F935F936F937F9306
:1008A0008F939F93AF93BF93CF93DF93EF93FF9378
:1008B00080912C01C0910B02D0E087FF24C01092E0
:1008C00085001092840080912C018F5F80932C0111
:1008D00080912C01082E000C990B8C179D0724F495
:1008E00080912C018C30C4F180918400909185001E
:1008F000049680349C4908F47AC0809184009091D9
:100900008500049676C080912C01082E000C990B6E
:100910008C179D07C4F6E0912C018E2FEE0F990BDA
:10092000FC01EE0FFF1FE80FF91FE951FE4F808118
:1009300086FFC9CFE0912C018E2FEE0F990BFC01A1
:10094000EE0FFF1FE80FF91FE951FE4F808160E0B5
:100950008F730E94A600B7CF20918400309185004C
:10096000E0912C018E2FEE0F990BFC01EE0FFF1F73
:10097000E80FF91FE951FE4F81819281820F931F89
:100980009093890080938800E0912C018E2FEE0FC8
:10099000990BFC01EE0FFF1FE80FF91FE951FE4F05
:1009A000808186FF11C0E0912C018E2FEE0F990BF4
:1009B000FC01EE0FFF1FE80FF91FE951FE4F808188
:1009C00061E08F730E94A600FF91EF91DF91CF91BC
:1009D000BF91AF919F918F917F916F915F914F9157
:1009E0003F912F910F900FBE0F901F90189580E4AC
:1009F0009CE990938900809388008FEF80932C016D
:100A0000E3CF10924D0110924C0188EE93E0A0E0EC
:100A1000B0E080934E0190934F01A0935001B093AA
:100A2000510184E091E090934B0180934A0185EC61
:100A300090E0909357018093560184EC90E090935E
:100A400059018093580180EC90E090935B01809372
:100A50005A0181EC90E090935D0180935C0182ECFF
:100A600090E090935F0180935E0186EC90E090931C
:100A700061018093600110926301109264011092F1
:100A800065011092660180910B028C3008F0D2C093
:100A900091E0980F90930B028093570290E0FC0135
:100AA000EE0FFF1FE80FF91FE951FE4F88EB9BE0A7
:100AB0009283818380910B028C3008F0BFC091E05B
:100AC000980F90930B028093540290E0FC01EE0F7C
:100AD000FF1FE80FF91FE951FE4F88EB9BE092835F
:100AE00081838AE999E9A9E9BEE380933002909372
:100AF0003102A0933202B09333021092340210926A
:100B0000350210923602109237021092380210927B
:100B1000390210923A0210923B0210923C0210925B
:100B20003D0210923E0210923F021092400210923B
:100B3000410210924202109243021092440210921B
:100B400045021092460210924702109248021092FB
:100B5000490210924A0210924B0280E090E0A4EB0E
:100B6000B2EC80934C0290934D02A0934E02B0934E
:100B70004F0280E090E0A4EBB2E4809350029093A7
:100B80005102A0935202B09353028AE999E9A9E174
:100B9000BEE380930C0290930D02A0930E02B093DB
:100BA0000F02109210021092110210921202109273
:100BB0001302109214021092150210921602109253
:100BC0001702109218021092190210921A02109233
:100BD0001B0210921C0210921D0210921E02109213
:100BE0001F021092200210922102109222021092F3
:100BF00023021092240210922502109226021092D3
:100C0000270280E090E0A4E3B2EC80932802909366
:100C10002902A0932A02B0932B0280E090E0A4E383
:100C2000B2E480932C0290932D02A0932E02B093F5
:100C30002F0208958FEF809357023CCF8FEF809360
:100C400054024FCF789484B5826084BD84B58160AE
:100C500084BD85B5826085BD85B5816085BD809187
:100C60006E00816080936E001092810080918100FF
:100C700082608093810080918100816080938100F7
:100C8000809180008160809380008091B1008460B9
:100C90008093B1008091B00081608093B00080911A
:100CA0007A00846080937A0080917A0082608093D9
:100CB0007A0080917A00816080937A0080917A0036
:100CC000806880937A001092C100E0915A01F091FF
:100CD0005B0182E08083E0915601F0915701108220
:100CE000E0915801F09159018FEC808310926201DC
:100CF000E0915E01F0915F0186E08083E0915C010C
:100D0000F0915D01808180618083E0915C01F091D0
:100D10005D01808188608083E0915C01F0915D01DC
:100D2000808180688083E0915C01F0915D01808129
:100D30008F7D80838AE00E94870086E00E94870082
:100D40006AE070E087E592E00E94B20266E070E03F
:100D500084E592E00E94B2026AE570E087E592E0E5
:100D60000E9436026AE570E084E592E00E94360255
:100D7000C0E0D0E00E940D032091390130913A018A
:100D800040913B0150913C0160913D0170913E01C9
:100D900080913F01909140010E94D10920E030E014
:100DA00040E05FE30E942F0B6B017C012091310139
:100DB00030913201409133015091340160913501FD
:100DC0007091360180913701909138010E94D109CC
:100DD00020E030E040E05FE30E942F0B9B01AC017C
:100DE000C701B6010E94D0096B017C012091440229
:100DF00030914502409146025091470220934802AB
:100E00003093490240934A0250934B02C0924402ED
:100E1000D0924502E0924602F09247020E94D00929
:100E20002B013C01409240025092410260924202EA
:100E30007092430220913C0230913D0240913E026B
:100E400050913F02C701B6010E94D1094B015C01DC
:100E500080923C0290923D02A0923E02B0923F02EC
:100E60002091300230913102409132025091330290
:100E7000C701B6010E942F0B6B017C012091340247
:100E8000309135024091360250913702C301B201D0
:100E90000E942F0B9B01AC01C701B6010E94D10932
:100EA0006B017C01209138023091390240913A0265
:100EB00050913B02C501B4010E942F0B9B01AC0174
:100EC000C701B6010E94D1096B017C0180905002DC
:100ED00090905102A0905202B09053029401A5014B
:100EE0000E942A0B181614F46401750180904C02BC
:100EF00090904D02A0904E02B0904F029601A70133
:100F0000B401C5010E942A0B181614F4640175017E
:100F1000C601D70180932D0190932E01A0932F013C
:100F2000B093300182E191E00E945203C0902D0104
:100F3000D0902E01E0902F01F0903001A701960192
:100F4000C701B6010E949C0B882309F434C18CE1CF
:100F500091E00E94520388E291E00E9452038AE2EB
:100F600091E00E94520388E291E00E9452030E94A5
:100F700004014B015C0188EEC82E83E0D82EE12CE1
:100F8000F12C0E940401681979098A099B09683EBD
:100F9000734081059105A8F321E0C21AD108E10848
:100FA000F10888EE880E83E0981EA11CB11CC114C4
:100FB000D104E104F10429F760912D0170912E0113
:100FC00080912F01909130010E94420A87E592E0C2
:100FD0000E9436020E940D032091350130913601A6
:100FE000409137015091380160913D0170913E016F
:100FF00080913F01909140010E94D10920E030E0B2
:1010000040E05FE30E942F0B6B017C0120913101D6
:101010003091320140913301509134016091390196
:1010200070913A0180913B0190913C010E94D1095D
:1010300020E030E040E05FE30E942F0B9B01AC0119
:10104000C701B6010E94D0096B017C0120912002EA
:1010500030912102409122025091230220932402D8
:10106000309325024093260250932702C09220021B
:10107000D0922102E0922202F09223020E94D00933
:101080002B013C0140921C0250921D0260921E02F4
:1010900070921F02209118023091190240911A0299
:1010A00050911B02C701B6010E94D1094B015C019E
:1010B0008092180290921902A0921A02B0921B021A
:1010C00020910C0230910D0240910E0250910F02BE
:1010D000C701B6010E942F0B6B017C012091100209
:1010E000309111024091120250911302C301B201DA
:1010F0000E942F0B9B01AC01C701B6010E94D109D0
:101100006B017C012091140230911502409116026E
:1011100050911702C501B4010E942F0B9B01AC0135
:10112000C701B6010E94D1096B017C0180902C029D
:1011300090902D02A0902E02B0902F029401A50154
:101140000E942A0B181614F464017501809028027D
:1011500090902902A0902A02B0902B029601A7013C
:10116000B401C5010E942A0B181614F4640175011C
:10117000C601D70180932D0190932E01A0932F01DA
:10118000B093300120E030E044EB52E4B601C701F7
:101190000E94D1090E94420A84E592E00E94360230
:1011A000209709F4E7CD0E949301882309F4E2CD4A
:1011B0000E940000DFCD46015701E894B7F82FEFF9
:1011C0003FEF4FE75FE7C501B4010E949C0B81111F
:1011D0000DC02FEF3FEF4FE75FE7C501B4010E945D
:1011E0003D0A18161CF480E291E0B3CE2FEF3FEFDA
:1011F0004FE75FE4C701B6010E942A0B18161CF4E2
:1012000084E291E0A6CE2FEF3FEF4FE75FECC701FE
:10121000B6010E943D0A87FDF3CF20E030E0A9012E
:10122000C701B6010E943D0A87FF09C06DE28AE44A
:1012300091E00E94C901F7FAF094F7F8F0942AE0DF
:1012400037ED43EA5BE3C701B6010E94D1094B01C8
:101250005C010E94490A6B017C010E94780A9B0193
:10126000AC01C501B4010E94D0094B015C014AE008
:10127000C701B6010E945F036EE28AE491E00E941A
:10128000C90120E030E040E251E4C501B4010E9410
:101290002F0B4B015C010E94490A6B01F12CE12CE0
:1012A0004AE0C701B6010E945F03C701B6010E9470
:1012B000780A9B01AC01C501B4010E94D00920E06D
:1012C00030E040E251E40E942F0B0E94490A90E076
:1012D00080E04AE00E945F033ECE052E97FB1EF49D
:1012E00000940E94840957FD07D00E949F0907FCC3
:1012F00003D04EF40C948409509540953095219577
:101300003F4F4F4F5F4F0895909580957095619531
:101310007F4F8F4F9F4F08950E94C109A59F900D49
:10132000B49F900DA49F800D911D11240895B7FFC7
:101330000C948C090E948C09821B930B0895A1E2E6
:101340001A2EAA1BBB1BFD010DC0AA1FBB1FEE1F3F
:10135000FF1FA217B307E407F50720F0A21BB30B8A
:10136000E40BF50B661F771F881F991F1A9469F706
:1013700060957095809590959B01AC01BD01CF0162
:101380000895A29FB001B39FC001A39F700D811D5E
:101390001124911DB29F700D811D1124911D08957E
:1013A0005058BB27AA270E94E8090C94F00A0E9413
:1013B000E20A38F00E94E90A20F039F49F3F19F45C
:1013C00026F40C94DF0A0EF4E095E7FB0C94D90A9E
:1013D000E92F0E94010B58F3BA17620773078407BD
:1013E000950720F079F4A6F50C94230B0EF4E09504
:1013F0000B2EBA2FA02D0B01B90190010C01CA01CF
:10140000A0011124FF27591B99F0593F50F4503E79
:1014100068F11A16F040A22F232F342F4427585F6B
:10142000F3CF469537952795A795F0405395C9F783
:101430007EF41F16BA0B620B730B840BBAF091503B
:10144000A1F0FF0FBB1F661F771F881FC2F70EC0DA
:10145000BA0F621F731F841F48F4879577956795AD
:10146000B795F7959E3F08F0B0CF9395880F08F099
:101470009927EE0F9795879508950E94B50A08F46D
:1014800081E008950E94490A6894B1110C94240BDC
:1014900008950E94090B88F09F5798F0B92F99275B
:1014A000B751B0F0E1F0660F771F881F991F1AF04F
:1014B000BA95C9F714C0B13091F00E94230BB1E086
:1014C00008950C94230B672F782F8827B85F39F085
:1014D000B93FCCF3869577956795B395D9F73EF4E8
:1014E00090958095709561957F4F8F4F9F4F089590
:1014F000E89409C097FB3EF49095809570956195AE
:101500007F4F8F4F9F4F9923A9F0F92F96E9BB2763
:101510009395F695879577956795B795F111F8CFDF
:10152000FAF4BB0F11F460FF1BC06F5F7F4F8F4F4A
:101530009F4F16C0882311F096E911C0772321F040
:101540009EE8872F762F05C0662371F096E8862FD8
:1015500070E060E02AF09A95660F771F881FDAF72F
:10156000880F9695879597F90895990F0008550F5C
:10157000AA0BE0E8FEEF16161706E807F907C0F019
:1015800012161306E407F50798F0621B730B840B21
:10159000950B39F40A2661F0232B242B252B21F4FB
:1015A00008950A2609F4A140A6958FEF811D811D9B
:1015B000089597F99F6780E870E060E008959FEFD5
:1015C00080EC089500240A941616170618060906DA
:1015D000089500240A9412161306140605060895A9
:1015E000092E0394000C11F4882352F0BB0F40F431
:1015F000BF2B11F460FF04C06F5F7F4F8F4F9F4F71
:10160000089557FD9058440F551F59F05F3F71F0F2
:101610004795880F97FB991F61F09F3F79F0879559
:101620000895121613061406551FF2CF4695F1DFE2
:1016300008C0161617061806991FF1CF8695710572
:10164000610508940895E894BB2766277727CB01A6
:1016500097F908950E94B50A08F48FEF08950E9443
:10166000420B0C94F00A0E94E20A38F00E94E90A48
:1016700020F0952311F00C94D90A0C94DF0A112460
:101680000C94240B0E94010B70F3959FC1F3950FEE
:1016900050E0551F629FF001729FBB27F00DB11DF6
:1016A000639FAA27F00DB11DAA1F649F6627B00D86
:1016B000A11D661F829F2227B00DA11D621F739F6F
:1016C000B00DA11D621F839FA00D611D221F749F7D
:1016D0003327A00D611D231F849F600D211D822FC4
:1016E000762F6A2F11249F5750409AF0F1F08823EB
:1016F0004AF0EE0FFF1FBB1F661F771F881F915018
:101700005040A9F79E3F510580F00C94D90A0C94E3
:10171000240B5F3FE4F3983ED4F386957795679565
:10172000B795F795E7959F5FC1F7FE2B880F911D41
:101730009695879597F908950E94B50A880B990B9D
:101740000895991B79E004C0991F961708F0961B1D
:10175000881F7A95C9F780950895EE0FFF1F0590B1
:10176000F491E02D0994F894FFCF00000000C90126
:101770002901560116028701650179016F757470A0
:101780007574203D20006E616E00696E66006F7694
:0617900066000D0A0000D6
:107800000C94343C0C94513C0C94513C0C94513CE1
:107810000C94513C0C94513C0C94513C0C94513CB4
:107820000C94513C0C94513C0C94513C0C94513CA4
:107830000C94513C0C94513C0C94513C0C94513C94
:107840000C94513C0C94513C0C94513C0C94513C84
:107850000C94513C0C94513C0C94513C0C94513C74
:107860000C94513C0C94513C11241FBECFEFD8E036
:10787000DEBFCDBF11E0A0E0B1E0ECE9FFE702C060
:1078800005900D92A230B107D9F712E0A2E0B1E065
:1078900001C01D92AD30B107E1F70E942D3D0C945F
:1078A000CC3F0C94003C982F959595959595959582
:1078B000905D8F708A307CF0282F295A8091C0000B
:1078C00085FFFCCF9093C6008091C00085FFFCCF60
:1078D0002093C6000895282F205DF0CF982F809127
:1078E000C00085FFFCCF9093C6000895EF92FF92F1
:1078F0000F931F93EE24FF2487018091C00087FD22
:1079000017C00894E11CF11C011D111D81E4E8164B
:1079100082E4F8068FE0080780E0180770F3E09132
:107920000401F091050109958091C00087FFE9CF1E
:107930008091C6001F910F91FF90EF9008950E94D3
:10794000763C982F8091C00085FFFCCF9093C600B5
:1079500091362CF490330CF09053892F089597555D
:10796000892F08951F930E949F3C182F0E949F3CCF
:107970001295107F810F1F9108951F93182F882350
:1079800021F00E94763C1150E1F71F9108951F935A
:10799000182F0E94763C803249F0809103018F5F5E
:1079A000809303018530C1F01F9108958091C0003C
:1079B00085FFFCCF84E18093C6008091C00085FFE5
:1079C000FCCF1093C6008091C00085FFFCCF80E102
:1079D0008093C6001F910895E0910401F091050184
:1079E00009951F9108950E94763C803241F0809164
:1079F00003018F5F80930301853081F008958091AA
:107A0000C00085FFFCCF84E18093C6008091C00058
:107A100085FFFCCF80E18093C6000895E0910401CA
:107A2000F09105010995089540E951E08823A1F0FE
:107A30002D9A28EE33E0FA013197F1F721503040CA
:107A4000D1F72D9828EE33E0FA013197F1F7215064
:107A50003040D1F7815061F708953F924F925F9285
:107A60006F927F928F929F92AF92BF92CF92DF924E
:107A7000EF92FF920F931F93CF93DF93000080E16B
:107A80008093C4001092C50088E18093C10086E015
:107A90008093C2005098589A259A81E00E94143D24
:107AA00024E1F22E9EE1E92E85E9D82E0FE0C02ECA
:107AB00010E1B12EAA24A394B1E49B2EA6E58A2E50
:107AC000F2E57F2EE0E26E2E79E4572E63E5462E36
:107AD00050E5352E0E94763C8033B1F18133B9F107
:107AE000803409F46FC0813409F476C0823409F41B
:107AF00085C0853409F488C0803531F1823521F1A3
:107B0000813511F1853509F485C0863509F48DC0BC
:107B1000843609F496C0843709F403C1853709F423
:107B200072C1863709F466C0809103018F5F80932C
:107B30000301853079F6E0910401F0910501099582
:107B40000E94763C803351F60E94F33CC3CF0E94E2
:107B5000763C803249F78091C00085FFFCCFF092DF
:107B6000C6008091C00085FFFCCF9092C600809136
:107B7000C00085FFFCCF8092C6008091C00085FFC9
:107B8000FCCF7092C6008091C00085FFFCCF609250
:107B9000C6008091C00085FFFCCF5092C600809146
:107BA000C00085FFFCCF4092C6008091C00085FFD9
:107BB000FCCF3092C6008091C00085FFFCCFB09210
:107BC000C60088CF0E94763C863808F4BDCF0E945C
:107BD000763C0E94F33C7ECF0E94763C803809F4CC
:107BE0009CC0813809F40BC1823809F43CC1883942
:107BF00009F48FC080E00E94C73C6CCF84E10E94F2
:107C0000BD3C0E94F33C66CF85E00E94BD3C0E94D3
:107C1000F33C60CF0E94763C809306010E94763C44
:107C2000809307010E94F33C55CF0E94763C80333D
:107C300009F41DC183E00E94BD3C80E00E94C73C66
:107C400049CF0E94763C809309020E94763C809343
:107C5000080280910C028E7F80930C020E94763C79
:107C6000853409F415C18091080290910902892B8D
:107C700089F000E010E00E94763CF801E85FFE4FDA
:107C800080830F5F1F4F80910802909109020817AF
:107C9000190788F30E94763C803209F045CF809125
:107CA0000C0280FF01C16091060170910701660F0F
:107CB000771F7093070160930601A0910802B091AD
:107CC00009021097C9F0E8E0F1E09B01AD014E0F09
:107CD0005F1FF999FECF32BD21BD819180BDFA9A17
:107CE000F99A2F5F3F4FE417F50799F76A0F7B1F4B
:107CF00070930701609306018091C00085FFFCCF5F
:107D0000F092C6008091C00085FFFCCFB092C60003
:107D1000E1CE83E00E94C73CDDCE82E00E94C73CFA
:107D2000D9CE0E94763C809309020E94763C8093D3
:107D300008028091060190910701880F991F909386
:107D40000701809306010E94763C853409F4A6C0A1
:107D500080910C028E7F80930C020E94763C8032D0
:107D600009F0B8CE8091C00085FFFCCFF092C6002C
:107D7000609108027091090261157105B9F140E046
:107D800050E080910C02A82FA170B82FB27011C0E2
:107D9000BB2309F45CC0E0910601F0910701319624
:107DA000F0930701E09306014F5F5F4F46175707B7
:107DB000E8F4AA2369F3F999FECF209106013091E6
:107DC000070132BD21BDF89A90B58091C00085FFB2
:107DD000FCCF9093C6002F5F3F4F30930701209355
:107DE00006014F5F5F4F4617570718F38091C00099
:107DF00085FDE5CE8091C00085FFF8CFE0CE81E023
:107E00000E94C73C67CE0E94763C803209F08CCE3F
:107E10008091C00085FFFCCFF092C6008091C00029
:107E200085FFFCCFE092C6008091C00085FFFCCFAB
:107E3000D092C6008091C00085FFFCCFC092C600E2
:107E40008091C00085FFFCCFB092C60043CEE09188
:107E50000601F091070194918091C00085FFFCCF4D
:107E60009093C6009CCF80E10E94C73C33CE0E9415
:107E7000763C0E94763C182F0E94763C112309F430
:107E800083C0113009F484C08FE00E94C73C22CE29
:107E900080910C02816080930C02E5CE80910C02EF
:107EA000816080930C0259CF809107018823880F4D
:107EB000880B8A2180930B02809106019091070123
:107EC000880F991F90930701809306018091080203
:107ED00080FF09C080910802909109020196909359
:107EE000090280930802F894F999FECF1127E091D6
:107EF0000601F0910701C8E0D1E08091080290915D
:107F00000902103091F40091570001700130D9F34B
:107F100003E000935700E89500915700017001308D
:107F2000D9F301E100935700E89509901990009169
:107F3000570001700130D9F301E000935700E89534
:107F40001395103498F011270091570001700130FB
:107F5000D9F305E000935700E895009157000170B0
:107F60000130D9F301E100935700E895329602976A
:107F700009F0C7CF103011F00296E5CF112480919F
:107F8000C00085FFB9CEBCCE8EE10E94C73CA2CD19
:0E7F900085E90E94C73C9ECDF894FFCF80008B
:00000001FF
