:100000000C945D000C9485000C9485000C94850084
:100010000C9485000C9485000C9485000C9485004C
:100020000C9485000C9485000C9485000C94CF03EF
:100030000C9485000C9485000C9485000C9485002C
:100040000C942D030C9485000C949D030C94770361
:100050000C9485000C9485000C9485000C9485000C
:100060000C9485000C94850000000008000201003B
:100070000003040700000000000000000000000072
:10008000250028002B0000000000240027002A0083
:10009000040404040404040402020202020203032E
:1000A0000303030301020408102040800102040836
:1000B00010200102040810208B0411241FBECFEF72
:1000C000D8E0DEBFCDBF11E0A0E0B1E0E8E5F5E1AA
:1000D00002C005900D92A231B107D9F722E0A2E14A
:1000E000B1E001C01D92A134B207E1F710E0CDE507
:1000F000D0E004C02197FE010E94A40ACC35D107AC
:10010000C9F70E94B8050C94AA0A0C94000090E06C
:10011000FC01EC55FF4F249180579F4FFC018491C7
:10012000882399F090E0880F991FFC01EA57FF4F50
:10013000A591B491FC01E458FF4F859194918FB73C
:10014000F894EC91E22BEC938FBF089590E0FC01C2
:10015000E859FF4F2491FC01EC55FF4F3491FC010D
:10016000E057FF4FE491EE23C9F0222339F023300A
:1001700001F1A8F4213019F1223029F1F0E0EE0F5D
:10018000FF1FE458FF4FA591B4918FB7F894EC91FD
:10019000611126C030953E233C938FBF08952730D0
:1001A000A9F02830C9F0243049F7809180008F7D74
:1001B00003C0809180008F7780938000DFCF84B56B
:1001C0008F7784BDDBCF84B58F7DFBCF8091B0006E
:1001D0008F778093B000D2CF8091B0008F7DF9CF20
:1001E0003E2BDACF8E50806480937C0080917A0021
:1001F000806480937A0080917A0086FDFCCF8091A4
:100200007800909179000895AF92BF92CF92DF92DB
:10021000EF92FF920F931F93CF93DF936C017B01BB
:100220008B01040F151FEB015E01AE18BF08C0174C
:10023000D10759F06991D601ED91FC910190F081BF
:10024000E02DC6010995892B79F7C501DF91CF9182
:100250001F910F91FF90EF90DF90CF90BF90AF90E4
:100260000895FC01538D448D252F30E0842F90E0BC
:10027000821B930B541710F0CF96089501970895A1
:10028000FC01918D828D981761F0A28DAE0FBF2F6A
:10029000B11D5D968C91928D9F5F9F73928F90E0C0
:1002A00008958FEF9FEF0895FC01918D828D98172F
:1002B00031F0828DE80FF11D858D90E008958FEF6C
:1002C0009FEF0895FC01918D228D892F90E0805C35
:1002D0009F4F821B91098F739927089581E391E0C5
:1002E0000E94620121E0892B09F420E0822F089509
:1002F00080E090E0892B29F00E946E0181110C941E
:1003000000000895FC01A48DA80FB92FB11DA35AB8
:10031000BF4F2C91848D90E001968F739927848F25
:10032000A689B7892C93A089B1898C918370806448
:100330008C93938D848D981306C00288F389E02DE9
:1003400080818F7D80830895EF92FF920F931F939A
:10035000CF93DF93EC0181E0888F9B8D8C8D981378
:100360001AC0E889F989808185FF15C09FB7F89484
:10037000EE89FF896083E889F989808183708064D0
:1003800080839FBF81E090E0DF91CF911F910F911B
:10039000FF90EF900895F62E0B8D10E00F5F1F4F2A
:1003A0000F731127E02E8C8D8E110CC00FB607FC39
:1003B000FACFE889F989808185FFF5CFCE010E94C7
:1003C0008201F1CFEB8DEC0FFD2FF11DE35AFF4FB2
:1003D000F0829FB7F8940B8FEA89FB898081806255
:1003E000CFCFCF93DF93EC01888D8823B9F0AA8912
:1003F000BB89E889F9898C9185FD03C0808186FDE0
:100400000DC00FB607FCF7CF8C9185FFF2CF80812E
:1004100085FFEDCFCE010E948201E9CFDF91CF9120
:100420000895CF92DF92EF92FF92CF93DF93EC018A
:10043000603282E07807CCF5653B710514F064EB1F
:1004400070E0898128E830E0281B310987FD339569
:10045000220F331F220F331F6901330FEE08FF08ED
:100460008A8128E532E0281B310987FD3395220F68
:10047000331F220F331F032E000C440B550B2C1976
:100480003D094E095F09DB0177FF02C0B0E0A0E043
:100490000E94930824EB30E040E050E00E9469089D
:1004A000C20ED31EE41EF51EB601E881EC3070F5D5
:1004B000298188E890E0821B910927FD9395880F98
:1004C000991F880F991F681779077CF02A8188E5A2
:1004D00092E0821B910927FD9395880F991F880F41
:1004E000991F681779070CF4CB010297880F991FA1
:1004F0004FB7F8942E2F30E0F901EE0FFF1FE20FF7
:10050000F31FE253FE4F928381834FBFDF91CF9160
:10051000FF90EF90DF90CF9008951F93CF93DF93DC
:10052000EC01162F88818C3008F04DC0862F0E9478
:1005300087008881282F30E0F901EE0FFF1FE20FBE
:10054000F31FE253FE4F1F736081607C612B608359
:1005500019821A822CE0622F0E94980A829FB001B1
:10056000112430E020E0AB01420F531FFA01EE0FDF
:10057000FF1FE40FF51FE253FE4F908196FD16C05A
:100580002F5F3F4F2C30310571F781110FC0109252
:10059000800082E080938100109285001092840098
:1005A000B19A80916F00826080936F00E8818E2FF6
:1005B00090E0FC01EE0FFF1FE80FF91FE253FE4F22
:1005C0008081806480838881DF91CF911F9108951D
:1005D0008EE00E94F200BC01990F880B990B0E94DB
:1005E000760960931C0170931D0180931E01909306
:1005F0001F0183E10E94F200BC01990F880B990B47
:100600000E947609609318017093190180931A0172
:1006100090931B0180E10E94F200BC01990F880BAE
:10062000990B0E94760960932401709325018093B1
:1006300026019093270181E10E94F200BC01990FED
:10064000880B990B0E947609609320017093210119
:10065000809322019093230108951F920F920FB669
:100660000F9211242F933F938F939F93AF93BF9338
:1006700080912D0190912E01A0912F01B091300118
:1006800030912C0123E0230F2D3758F50196A11D41
:10069000B11D20932C0180932D0190932E01A093E6
:1006A0002F01B09330018091280190912901A091F0
:1006B0002A01B0912B010196A11DB11D8093280143
:1006C00090932901A0932A01B0932B01BF91AF9180
:1006D0009F918F913F912F910F900FBE0F901F9080
:1006E000189526E8230F0296A11DB11DD2CF1F92A7
:1006F0000F920FB60F9211242F933F934F935F9356
:100700006F937F938F939F93AF93BF93EF93FF93D9
:1007100081E391E00E948201FF91EF91BF91AF913F
:100720009F918F917F916F915F914F913F912F9109
:100730000F900FBE0F901F9018951F920F920FB63B
:100740000F9211242F938F939F93EF93FF93E09138
:100750004101F09142018081E0914701F09148010F
:1007600082FD1BC0908180914A018F5F8F73209121
:100770004B01821741F0E0914A01F0E0EF5CFE4F3F
:10078000958F80934A01FF91EF919F918F912F91C7
:100790000F900FBE0F901F9018958081F4CF1F927D
:1007A0000F920FB60F9211242F933F934F935F93A5
:1007B0006F937F938F939F93AF93BF93CF93DF9369
:1007C000EF93FF9380911201C091F201D0E087FF77
:1007D00024C01092850010928400809112018F5FD6
:1007E0008093120180911201082E000C990B8C1736
:1007F0009D0724F4809112018C30C4F18091840013
:1008000090918500049680349C4908F47AC08091C8
:10081000840090918500049676C080911201082E84
:10082000000C990B8C179D07C4F6E09112018E2FD6
:10083000EE0F990BFC01EE0FFF1FE80FF91FE253BB
:10084000FE4F808186FFC9CFE09112018E2FEE0FFF
:10085000990BFC01EE0FFF1FE80FF91FE253FE4F4B
:10086000808160E08F730E94A600B7CF2091840042
:1008700030918500E09112018E2FEE0F990BFC0153
:10088000EE0FFF1FE80FF91FE253FE4F81819281A7
:10089000820F931F9093890080938800E09112014A
:1008A0008E2FEE0F990BFC01EE0FFF1FE80FF91FC3
:1008B000E253FE4F808186FF11C0E09112018E2F1E
:1008C000EE0F990BFC01EE0FFF1FE80FF91FE2532B
:1008D000FE4F808161E08F730E94A600FF91EF912F
:1008E000DF91CF91BF91AF919F918F917F916F9148
:1008F0005F914F913F912F910F900FBE0F901F90DE
:10090000189580E49CE990938900809388008FEF8C
:1009100080931201E3CF109234011092330188EEDC
:1009200093E0A0E0B0E08093350190933601A0936E
:100930003701B093380184E091E0909332018093C5
:10094000310185EC90E090933E0180933D0184EC71
:1009500090E09093400180933F0180EC90E0909371
:1009600042018093410181EC90E090934401809397
:10097000430182EC90E0909346018093450186EC20
:1009800090E0909348018093470110924A011092A1
:100990004B0110924C0110924D018091F2018C306C
:1009A00008F0DEC091E0980F9093F20180933E0230
:1009B00090E0FC01EE0FFF1FE80FF91FE253FE4F1E
:1009C00088EB9BE0928381838091F2018C3008F068
:1009D000CBC091E0980F9093F20180933B0290E09E
:1009E000FC01EE0FFF1FE80FF91FE253FE4F88EBEB
:1009F0009BE0928381838AE999E9A9E9BDE3809329
:100A0000170290931802A0931902B0931A028AEF6A
:100A10009DEEABEEB9E380931B0290931C02A09372
:100A20001D02B0931E0284E390E8A7EBB9E3809324
:100A30001F0290932002A0932102B09322021092F1
:100A40002302109224021092250210922602109284
:100A50002702109228021092290210922A02109264
:100A60002B0210922C0210922D0210922E02109244
:100A70002F0210923002109231021092320240E0A6
:100A800050E064EB72EC4093330250933402609375
:100A900035027093360240E050E064EB72E440931C
:100AA0003702509338026093390270933A024FE84C
:100AB00052EC65EF7CE34093F3015093F4016093B3
:100AC000F5017093F60142E65EEB6CE379E3409347
:100AD000F7015093F8016093F9017093FA01809344
:100AE000FB019093FC01A093FD01B093FE011092D5
:100AF000FF01109200021092010210920202109265
:100B00000302109204021092050210920602109243
:100B10000702109208021092090210920A02109223
:100B20000B0210920C0210920D0210920E0280E045
:100B300090E0ACE8B2EC80930F0290931002A09387
:100B40001102B093120280E090E0ACE5B2E4809331
:100B5000130290931402A0931502B0931602089505
:100B60008FEF80933E0230CF8FEF80933B0243CFD5
:100B7000CF93DF9300D000D0CDB7DEB7789484B5A3
:100B8000826084BD84B5816084BD85B5826085BD89
:100B900085B5816085BD80916E00816080936E0017
:100BA0001092810080918100826080938100809109
:100BB00081008160809381008091800081608093BA
:100BC00080008091B10084608093B1008091B0007A
:100BD00081608093B00080917A00846080937A0075
:100BE00080917A00826080937A0080917A0081609F
:100BF00080937A0080917A00806880937A001092C6
:100C0000C100E0914101F091420182E08083E091D6
:100C10003D01F0913E011082E0913F01F0914001D1
:100C20008FEC808310924901E0914501F0914601DB
:100C300086E08083E0914301F091440180818061EE
:100C40008083E0914301F09144018081886080833A
:100C5000E0914301F0914401808180688083E091BC
:100C60004301F091440180818F7D808389E00E945F
:100C7000870086E00E94870069E070E08EE392E0E2
:100C80000E948D0266E070E08BE392E00E948D028C
:100C90006AE570E08EE392E00E9411026AE570E07E
:100CA0008BE392E00E9411028FB7F89440912D01DE
:100CB00050912E0160912F01709130018FBF11E092
:100CC0000E94E802209120013091210140912201EF
:100CD000509123016091240170912501809126019A
:100CE000909127010E94CD0820E030E040E05FE3D2
:100CF0000E942B0A6B017C0120911801309119018F
:100D000040911A0150911B0160911C0170911D01CD
:100D100080911E0190911F010E94CD0820E030E0DB
:100D200040E05FE30E942B0A9B01AC01C701B601C2
:100D30000E94CC086B017C01C0920702D09208028D
:100D4000E0920902F0920A0220910B0230910C020B
:100D500040910D0250910E020E94CC082B013C01E3
:100D600040920302509204026092050270920602C1
:100D70002091FF0130910002409101025091020246
:100D8000C701B6010E94CD084B015C018092FF01B2
:100D900090920002A0920102B09202022091F3010F
:100DA0003091F4014091F5015091F601C701B6016F
:100DB0000E942B0A69837A838B839C832091F7019D
:100DC0003091F8014091F9015091FA01C301B2014B
:100DD0000E942B0A9B01AC0169817A818B819C81E5
:100DE0000E94CD082B013C012091FB013091FC01B8
:100DF0004091FD015091FE01C501B4010E942B0AF2
:100E00009B01AC01C301B2010E94CD084B015C0102
:100E1000C0920B02D0920C02E0920D02F0920E02F0
:100E2000C0901302D0901402E0901502F0901602C8
:100E30009601A7010E94260A181694F0C0900F028E
:100E4000D0901002E0901102F09012029601A701DA
:100E5000B401C5010E94390987FD02C06401750112
:100E6000C601D7018093140190931501A093160138
:100E7000B093170120E030E0A901B601C7010E943C
:100E8000260A18160CF019C1109313019601A70138
:100E900060E070E084EB92E40E94CC080E943E097E
:100EA0008BE392E00E9411020E94E80220911C0153
:100EB00030911D0140911E0150911F01609124014C
:100EC0007091250180912601909127010E94CD0803
:100ED00020E030E040E05FE30E942B0A6B017C01E0
:100EE000209118013091190140911A0150911B0174
:100EF0006091200170912101809122019091230144
:100F00000E94CD0820E030E040E05FE30E942B0A21
:100F10009B01AC01C701B6010E94CC086B017C01AA
:100F2000C0922B02D0922C02E0922D02F0922E025F
:100F300020912F02309130024091310250913202C3
:100F40000E94CC082B013C014092270250922802BB
:100F50006092290270922A02209123023091240289
:100F60004091250250912602C701B6010E94CD088A
:100F70004B015C018092230290922402A0922502F0
:100F8000B092260220911702309118024091190266
:100F900050911A02C701B6010E942B0A69837A8315
:100FA0008B839C8320911B0230911C0240911D0277
:100FB00050911E02C301B2010E942B0A9B01AC0199
:100FC00069817A818B819C810E94CD082B013C0133
:100FD00020911F0230912002409121025091220263
:100FE000C501B4010E942B0A9B01AC01C301B201EF
:100FF0000E94CD084B015C01C0922F02D0923002BA
:10100000E0923102F0923202C0903702D090380262
:10101000E0903902F0903A02A70196010E94260A58
:10102000181694F0C0903302D0903402E09035024C
:10103000F0903602A7019601B401C5010E9439095A
:1010400087FD02C064017501C0921401D0921501A0
:10105000E0921601F092170180911301882361F04C
:10106000F7FAF094F7F8F094C0921401D0921501B9
:10107000E0921601F09217012091140130911501B0
:10108000409116015091170160E070E084EB92E40A
:101090000E94CC080E943E098EE392E00E94110259
:1010A00080E090E0892B09F40BCE0E946E0188232A
:1010B00009F406CE0E94000003CE20E030E0A90132
:1010C000B601C7010E94390987FFE0CE10921301D3
:1010D000DDCE052E97FB1EF400940E94800857FD7C
:1010E00007D00E949B0807FC03D04EF40C948008A4
:1010F00050954095309521953F4F4F4F5F4F089544
:1011000090958095709561957F4F8F4F9F4F089573
:101110000E94BD08A59F900DB49F900DA49F800DC7
:10112000911D11240895B7FF0C9488080E94880827
:10113000821B930B0895A1E21A2EAA1BBB1BFD0173
:101140000DC0AA1FBB1FEE1FFF1FA217B307E407A6
:10115000F50720F0A21BB30BE40BF50B661F771FFE
:10116000881F991F1A9469F76095709580959095DE
:101170009B01AC01BD01CF010895A29FB001B39FB7
:10118000C001A39F700D811D1124911DB29F700D90
:10119000811D1124911D08955058BB27AA270E9434
:1011A000E4080C94EC090E94DE0938F00E94E5097D
:1011B00020F039F49F3F19F426F40C94DB090EF467
:1011C000E095E7FB0C94D509E92F0E94FD0958F33F
:1011D000BA17620773078407950720F079F4A6F51C
:1011E0000C941F0A0EF4E0950B2EBA2FA02D0B01C4
:1011F000B90190010C01CA01A0011124FF27591B5C
:1012000099F0593F50F4503E68F11A16F040A22F61
:10121000232F342F4427585FF3CF469537952795D2
:10122000A795F0405395C9F77EF41F16BA0B620BD1
:10123000730B840BBAF09150A1F0FF0FBB1F661F18
:10124000771F881FC2F70EC0BA0F621F731F841F5B
:1012500048F4879577956795B795F7959E3F08F081
:10126000B0CF9395880F08F09927EE0F9795879543
:1012700008950E94B10908F481E008950E9445098B
:101280006894B1110C94200A08950E94050A88F010
:101290009F5798F0B92F9927B751B0F0E1F0660F3A
:1012A000771F881F991F1AF0BA95C9F714C0B1307B
:1012B00091F00E941F0AB1E008950C941F0A672F55
:1012C000782F8827B85F39F0B93FCCF386957795AA
:1012D0006795B395D9F73EF4909580957095619593
:1012E0007F4F8F4F9F4F0895E89409C097FB3EF4BE
:1012F00090958095709561957F4F8F4F9F4F992363
:10130000A9F0F92F96E9BB279395F69587957795E0
:101310006795B795F111F8CFFAF4BB0F11F460FFA0
:101320001BC06F5F7F4F8F4F9F4F16C0882311F0F8
:1013300096E911C0772321F09EE8872F762F05C00C
:10134000662371F096E8862F70E060E02AF09A95A7
:10135000660F771F881FDAF7880F9695879597F99C
:101360000895990F0008550FAA0BE0E8FEEF161636
:101370001706E807F907C0F012161306E407F50789
:1013800098F0621B730B840B950B39F40A2661F0FD
:10139000232B242B252B21F408950A2609F4A140A0
:1013A000A6958FEF811D811D089597F99F6780E8AD
:1013B00070E060E008959FEF80EC089500240A94A7
:1013C0001616170618060906089500240A94121620
:1013D0001306140605060895092E0394000C11F453
:1013E000882352F0BB0F40F4BF2B11F460FF04C000
:1013F0006F5F7F4F8F4F9F4F089557FD9058440F59
:10140000551F59F05F3F71F04795880F97FB991F63
:1014100061F09F3F79F08795089512161306140620
:10142000551FF2CF4695F1DF08C0161617061806AD
:10143000991FF1CF86957105610508940895E89488
:10144000BB2766277727CB0197F908950E94B1093A
:1014500008F48FEF08950E943E0A0C94EC090E9454
:10146000DE0938F00E94E50920F0952311F00C9474
:10147000D5090C94DB0911240C94200A0E94FD0963
:1014800070F3959FC1F3950F50E0551F629FF001D7
:10149000729FBB27F00DB11D639FAA27F00DB11DF0
:1014A000AA1F649F6627B00DA11D661F829F222779
:1014B000B00DA11D621F739FB00DA11D621F839F00
:1014C000A00D611D221F749F3327A00D611D231FD6
:1014D000849F600D211D822F762F6A2F11249F5724
:1014E00050409AF0F1F088234AF0EE0FFF1FBB1F27
:1014F000661F771F881F91505040A9F79E3F5105E6
:1015000080F00C94D5090C94200A5F3FE4F3983ED8
:10151000D4F3869577956795B795F795E7959F5F8F
:10152000C1F7FE2B880F911D9695879597F9089521
:10153000991B79E004C0991F961708F0961B881F25
:101540007A95C9F780950895EE0FFF1F0590F491E5
:08155000E02D0994F894FFCF8F
:1015580000000000A40104013101F1016201400111
:0215680054012C
:00000001FF
